:100000000A128A11602C00308A000408840A8207D0
:100010000034203420342034543465346D3470344A
:0A0020002834433429343A34003404
:10082C00F00070088312031388000800F101031410
:10083C00F10D00300A128A11B2240A128A11080032
:10084C00C030F4007408F10000300A128A11B2248E
:10085C000A128A1108000230F4007408F10000300A
:10086C000A128A11B2240A128A110800F0007018B8
:10087C00402C442C831203130616472C83120313AB
:10088C0006120800F00070184C2C502C8312031325
:10089C008616532C8312031386120800F500750874
:1008AC00F4007408F10001300A128A11B2240A1201
:1008BC008A110800B201B301B401B501B601B70148
:1008CC00B801B901BA01BB0183010A128A116B2E5E
:1008DC008312031385018601870188018901831620
:1008EC0003138501033086001030870088018901CD
:1008FC0083160317890188010A128A11E4240A124B
:10090C008A110800F401F5018B2C701C8E2C8F2C95
:10091C00952C7208F4070318F50A7308F5070130D3
:10092C000310F20DF30DFF3E031D962C0130031046
:10093C00F10CF00CFF3E031D9D2C71087004031D7F
:10094C00A82CA92C8B2CAA2C7508F101F107740882
:10095C00F001F007B12C0800F30073080A128A1199
:10096C003C240A128A1171080A128A1116240A12DE
:10097C008A1101300A128A1148240A128A11A630EF
:10098C00F200F20BC72C000000300A128A11482426
:10099C000A128A11F930F2000000F20BD22CD62C7C
:1009AC00000000300A128A113C240A128A1100300D
:1009BC000A128A1116240A128A11080001300A122E
:1009CC008A1148240A128A110A30F500BC30F4004E
:1009DC00F40BEE2CF50BEE2C00003830F400740800
:1009EC00F10000300A128A11B2240A128A11063060
:1009FC00F4007408F10000300A128A11B2240A12B1
:100A0C008A110C30F4007408F10000300A128A11BB
:100A1C00B2240A128A110A128A111C240A128A118F
:100A2C000800F2010730F3000030F400F41F1F2D12
:100A3C00202D222D4F2D4F2D831203130713A6307B
:100A4C00F000F00B272D000083120313071E2F2D2F
:100A5C00302D3E2D0130F000730A362D0310F00DB1
:100A6C00FF3E031D342D7008F1007108F2043E2D79
:100A7C000717A630F000F00B412D0000FF30F307F4
:100A8C000318F40AFF30F407F41F4D2D4E2D222DC0
:100A9C004F2D7208512D0800F700852D7708840022
:100AAC000A128A1103200A128A110A3A03195F2DBD
:100ABC00602D6D2D770884000A128A1103200A120A
:100ACC008A110D3A031D6B2D6C2D732D6D2D0A1291
:100ADC008A1126240A128A11802D770884000A12A2
:100AEC008A1103200A128A110A128A1154240A123A
:100AFC008A11802D0130F6007608F707852D7708CE
:100B0C0084000A128A1103200A128A110038031D6C
:100B1C00902D912D542D922D0800710870040319FD
:100B2C00982D992DCF2DF5010314F50DA92D01301C
:100B3C000310F00DF10DFF3E031D9E2D0130F4004E
:100B4C007408F507A92DF11FAC2DAD2D9D2DAF2DE2
:100B5C00AF2D71087302031DB52D70087202031CB2
:100B6C00B82DB92DC02D7008F2027108031CF303C7
:100B7C00F302C02D01300310F10CF00CFF3E031DED
:100B8C00C12D0130F502031DCC2DCD2DAF2DCF2D58
:100B9C00CF2D7308F101F1077208F001F007D62D83
:100BAC000800831203130711A630F800F80BDC2D94
:100BBC0000000A128A1117250A128A11F800F9018D
:100BCC007808FA007908FB0008300310FA0DFB0DC9
:100BDC00FF3E031DEB2D0A128A1117250A128A11EA
:100BEC00F800F9017808FA047908FB04831203135E
:100BFC00071503300310FB0CFA0CFF3E031D002EEF
:100C0C007B08F101F1077A08F001F0071930F200C6
:100C1C000030F3000A128A1188240A128A11710812
:100C2C00F701F7077008F601F6071C2E0800F5010E
:100C3C00F601710870040319242E252E632EF7017A
:100C4C000314F70D352E01300310F00DF10DFF3E9E
:100C5C00031D2A2E0130F4007408F707352EF11FFE
:100C6C00382E392E292E3B2E3B2E01300310F50D3C
:100C7C00F60DFF3E031D3C2E71087302031D482E1A
:100C8C0070087202031C4B2E4C2E542E7008F2026C
:100C9C007108031CF303F3027514542E0130031076
:100CAC00F10CF00CFF3E031D552E0130F702031D15
:100CBC00602E612E3B2E632E632E7608F101F10718
:100CCC007508F001F0076A2E08000A128A116E24CA
:100CDC000A128A110A128A1131240A128A1101305D
:100CEC000A128A1152250A128A117C2E83120313BE
:100CFC00B001B1010A128A11D7250A128A1177089C
:100D0C0083120313B101B1077608B001B007643048
:100D1C00F0000030F1003108F301F3073008F20164
:100D2C00F2070A128A1193250A128A11710883128A
:100D3C000313AF01AF077008AE01AE076430F000CB
:100D4C000030F1003108F301F3073008F201F2072B
:100D5C000A128A111D260A128A11710883120313B2
:100D6C00B101B1077008B001B0070430AD00CF304D
:100D7C00AC000330AB00AB0BC12EAC0BC12EAD0BDA
:100D8C00C12EC82E0A128A1126240A128A11831225
:100D9C0003133108F901F9073008F801F80703309B
:100DAC000A128A1105270A128A112E300A128A1188
:100DBC0054240A128A11831203132F08F901F9071C
:100DCC002E08F801F80702300A128A1105270A12B8
:100DDC008A1183120313803086060430AD00CF30A5
:100DEC00AC000330AB00AB0BF92EAC0BF92EAD0BFA
:100DFC00F92E002F7C2E7C2E0A128A1100288312C9
:100E0C000313AA00203084003230FA000408FB00DF
:100E1C000A30FC007A08840083130008FD00FA0AEB
:100E2C007B0884007D088000FB0AFC0B102F10301F
:100E3C00F0002730F1007908F301F3077808F2018C
:100E4C00F2070A128A111D260A128A1171088312DE
:100E5C000313A901A9077008A801A8071030F00016
:100E6C002730F1007908F301F3077808F201F20753
:100E7C000A128A1193250A128A117108831203131C
:100E8C00A701A7077008A601A607E830F0000330F9
:100E9C00F1002708F301F3072608F201F2070A1202
:100EAC008A1193250A128A11710883120313A50162
:100EBC00A5077008A401A407E830F0000330F10086
:100ECC002708F301F3072608F201F2070A128A1128
:100EDC001D260A128A11710883120313A701A70792
:100EEC007008A601A6076430F0000030F100250858
:100EFC00F301F3072408F201F2070A128A11932571
:100F0C000A128A11710883120313A301A307700834
:100F1C00A201A2076430F0000030F1002508F301B3
:100F2C00F3072408F201F2070A128A111D260A128D
:100F3C008A11710883120313A501A5077008A40177
:100F4C00A4070A30F0000030F1002308F301F30786
:100F5C002208F201F2070A128A1193250A128A1149
:100F6C00710883120313A101A1077008A001A00747
:100F7C000A30F0000030F1002308F301F3072208D7
:100F8C00F201F2070A128A111D260A128A1171083F
:100F9C0083120313A301A3077008A201A207063052
:100FAC002A02031CDA2FDB2FE02F0530FA007A0817
:100FBC00AA00E02FAA08031DE42FE52FE72FFF2F2F
:100FCC00FF2F2A08FA007A07FE3E203E8400831386
:100FDC000008303E0A128A1154240A128A11013078
:100FEC0083120313AA02AA08031DFD2FFE2FE72F5D
:040FFC00FF2F0800BB
:02400E00EAECDA
:00000001FF
